:1000000000800020BD010000496E0000016E00006C
:10001000016E0000016E0000016E0000016E000024
:10002000016E0000016E0000016E0000496E0000CC
:10003000496E0000016E0000496E0000F16D000085
:10004000496E0000496E0000496E0000496E0000D4
:10005000496E0000496E0000496E0000496E0000C4
:10006000496E0000496E0000496E0000496E0000B4
:10007000496E0000496E0000496E0000496E0000A4
:10008000496E0000496E0000496E0000496E000094
:10009000496E0000496E0000496E0000496E000084
:1000A000E9670000F5670000496E0000496E000036
:1000B000496E0000496E0000496E0000496E000064
:1000C000496E0000496E0000496E0000496E000054
:1000D000496E0000496E0000496E0000496E000044
:1000E000496E0000496E0000496E0000496E000034
:1000F000496E0000F98C0000496E0000258E00005A
:10010000496E0000518F0000496E0000496E0000EA
:10011000496E0000496E0000496E0000496E000003
:10012000496E0000496E0000496E0000496E0000F3
:10013000496E0000496E0000496E0000496E0000E3
:10014000496E0000496E0000496E0000496E0000D3
:1001500095880000A9880000BD880000D1880000B3
:10016000496E0000B9770000496E0000496E00003A
:10017000496E0000496E0000496E0000496E0000A3
:10018000496E0000496E0000496E0000496E000093
:10019000496E0000496E0000496E0000496E000083
:1001A000496E0000496E0000496E0000496E000073
:1001B000496E0000496E000051860000564B4CF21B
:1001C000205210B51A804DF628121A8000BF00BFC9
:1001D00000F04CFB514B4FF010621A60504A9A608D
:1001E000504ADA60504A136813F4807304D14F49BF
:1001F0000B604FF4A85313604D4B1A78110703D5C9
:100200001A7842F008021A704A4B4B492A221A7097
:100210004A4A4B4B8B4204D252F8040F43F8040B6A
:10022000F8E7484B484900228B4202D243F8042B9E
:10023000FAE74649464A002352F8230041F82300D2
:1002400001336F2BF8D1434B434A802103F8011B44
:100250009342FBD1414B3D4A1A60414B8A221A70AE
:10026000A3F5805324225A70A0221A709A7992071B
:10027000FCD59A79D406FCD43A4A937903F00C035E
:10028000082B384BF9D103221A7140225A719A79FE
:100290009006FCD5334A9179324B4906FBD5324A58
:1002A000324911600221516020221A709A7902F0BD
:1002B0000C020C2AFAD12E4B2E4A1A602E4B2F4AD2
:1002C0001A6000225A60072243F8042C2C4AC3F813
:1002D0000C2D62B607F048F9144B1B68DA0705D5F8
:1002E000284806F015FF284B284A1A60284B1B782F
:1002F0005B0609D5244C254B22689A4204D121483B
:1003000006F006FF002323600BF09AFE06F0A0FD26
:1003100008F070FCFEE700BF0E200540308004406E
:10032000823F04000100002B10D0034014D0034092
:1003300002D0074000E0074014350020D4640100DB
:10034000200D002018350020385000200008002023
:100350000000000000E400E05FE400E008ED00E0E1
:100360000050064000400640448004400000030165
:1003700004800440C010050014E000E0FF76010096
:1003800000002020908CE85A1CE00340A5C3945A3A
:1003900000F00740FFFFFFFFFFFFFFFFFFFFFFFF32
:1003A000FFFFFFFFFFFFFFFFFFFFFFFFFFFFFFFF5D
:1003B000FFFFFFFFFFFFFFFFFFFFFFFFFFFFFFFF4D
:1003C000FFFFFFFFFFFFFFFFFFFFFFFFFFFFFFFF3D
:1003D000FFFFFFFFFFFFFFFFFFFFFFFFFFFFFFFF2D
:1003E000FFFFFFFFFFFFFFFFFFFFFFFFFFFFFFFF1D
:1003F000FFFFFFFFFFFFFFFFFFFFFFFFFFFFFFFF0D
:10040000FFFFFFFFFFFFFFFFFFFFFFFFDEF9FFFF23
:1004100010B5054C237833B9044B13B10448AFF33E
:1004200000800123237010BD18350020000000005B
:10043000D8640100084B10B51BB108490848AFF358
:1004400000800848036803B910BD074B002BFBD0A0
:10045000BDE81040184700BF000000001C35002018
:10046000D86401001435002000000000F8B555489C
:10047000554D564C297803782278DFF868E1544FBF
:10048000544E120442EA0323FF222A700270802095
:1004900022708EF800003870B2794F480B4312F08A
:1004A0000C0FC36002D1B379DC063DD4494A93797D
:1004B000C3F38103032B40D0464B9A79C2F38102E8
:1004C000022A42D0434A9379C3F38103022B53D0CB
:1004D000404A9379C3F38103022B61D03D4A93795B
:1004E000C3F38103012B51D03A4A9379C3F38103BB
:1004F000012B5CD0374B9A7912F00C0F03D19A790B
:10050000D20600D49B79354D354B2A7853F82240DA
:10051000D4B1236820469B6898472B7804EB83046A
:100520006468002CF5D1F8BDB3799806EBD5294A5B
:100530009379C3F38103032BBED19379D906BBD43E
:1005400093799B06DFD4B7E7F8BD9A79D706B9D47B
:100550009A799606B6D5597801F0020101F0FF02AA
:100560000029AFD120211A701A461970937903F02F
:100570000C030C2BFAD1C6E79379DD06A8D4937946
:100580009C06A5D453789807BDD5A1E79379DF06DB
:10059000AAD593799E06A7D453789D07B3D4A3E731
:1005A0009379D9069AD453789B07ACD496E793797C
:1005B000DC069FD5937998069CD453789907A2D5E9
:1005C00098E700BF06C0074005C0074007C00740C6
:1005D00009C0074000400640105000201C4A00207F
:1005E000DC49002008C0074090F92410104B03603C
:1005F0004B1C06D0F0B40F4E56F82130984201D073
:10060000F0BC70470C4F57F8213033B18D000024F7
:100610005A1953685460002BFAD1084C23780022F1
:10062000013B237047F8212046F82120E8E700BF6E
:10063000A4570100FC490020DC4900201D4A00208D
:1006400038B590F924506B1C1BD00E4B0E4953F853
:1006500025400E4BEDB24FF0FF320D701A6084B1A1
:10066000AD0002E02C4464685CB194F82530002BA6
:10067000F8D0236820462C441B6898476468002CF7
:10068000F3D138BDDC4900201C4A002000040020C2
:10069000704700BF90F92410104B03604B1C06D02C
:1006A000F0B40F4E56F82130984201D0F0BC70479C
:1006B0000C4F57F8213033B18D0000245A1953687C
:1006C0005460002BFAD1084C23780022013B2370A0
:1006D00047F8212046F82120E8E700BFA457010091
:1006E000FC490020DC4900201D4A002090F924101C
:1006F000104B03604B1C06D0F0B40F4E56F821305F
:10070000984201D0F0BC70470C4F57F8213033B1FC
:100710008D0000245A1953685460002BFAD1084CFC
:1007200023780022013B237047F8212046F821203E
:10073000E8E700BFA4570100FC490020DC49002085
:100740001D4A002090F92410104B03604B1C06D06A
:10075000F0B40F4E56F82130984201D0F0BC7047EB
:100760000C4F57F8213033B18D0000245A195368CB
:100770005460002BFAD1084C23780022013B2370EF
:1007800047F8212046F82120E8E700BFA4570100E0
:10079000FC490020DC4900201D4A002010B5044619
:1007A00008F062F8204610BD10B5094C04F1840031
:1007B00005F04EFE04F1580005F04AFE04F12C004D
:1007C00005F046FE2046BDE8104005F041BE00BFE2
:1007D0004847002010B5094C04F1840005F038FEAC
:1007E00004F1580005F034FE04F12C0005F030FE51
:1007F0002046BDE8104005F02BBE00BFF83C0020AD
:1008000010B5094C04F1840005F022FE04F15800F3
:1008100005F01EFE04F12C0005F01AFE2046BDE88E
:10082000104005F015BE00BF5C43002010B5094C18
:1008300004F1840005F00CFE04F1580005F008FEF8
:1008400004F12C0005F004FE2046BDE8104005F040
:10085000FFBD00BF5C460020024A034B115C185CE0
:1008600006F068BCBC57010018590100464A474BC6
:10087000102010801B781B0734D5F0B5444E454D31
:10088000454C31782B782278DFF82CE1434F8240B9
:1008900042EA03230B43FF22802132702A70227028
:1008A0008EF800103970D9073D4A14D51A23936089
:1008B0003C4F3D4E3D4D3E4C3E49107900233B7030
:1008C00053709370D370D360337013712B70237097
:1008D00013700870F0BD1F0705D4DE0606D504238B
:1008E0009360E5E7704721239360E1E79D0604D418
:1008F0005C0604D516239360DAE79060D8E7180603
:1009000002D509239360D3E7D90502D50A23936062
:10091000CEE79F0502D50D239360C9E75E0502D59A
:100920000B239360C4E71D0502D51E239360BFE728
:10093000DC0402D502239360BAE7980402D50723AA
:100940009360B5E7590402D506239360B0E71F040E
:1009500002D515239360ABE7DE0302D52423936011
:10096000A6E79D0302D522239360A1E7DC0202D50E
:10097000252393609CE71803F5D45903F3D49B0215
:1009800044BF2323936093E70020054002D0074033
:1009900005C0074006C0074007C0074009C0074020
:1009A0001050002000C0074001C0074002C00740AF
:1009B00003C0074004C0074008C00740002976D0A4
:1009C0002DE9F04F0C469100631883B05D68002D4F
:1009D00057D06B185E68002E50D073185F68002FD8
:1009E00049D07B18D3F80480B8F1000F3CD008EB55
:1009F0000103D3F80490B9F1000F32D009EB0103E1
:100A0000D3F804A0BAF1000F27D00AEB0103D3F802
:100A100004B0BBF1000F18D00BEB01035B6863B1AE
:100A2000194401934968FFF7C9FF019B93F82520FA
:100A30001AB11A681846536898479BF8253023B1B5
:100A4000DBF8003058465B6898479AF8253023B1A8
:100A5000DAF8003050465B68984799F82530002B4B
:100A600035D198F8253063BB97F825301BB13B682A
:100A700038465B68984796F82530CBB995F825300D
:100A800063B994F8253013B903B0BDE8F08F23683B
:100A90005B68204603B0BDE8F04F18472B68284636
:100AA0005B68984794F82530002BEDD0EFE770474E
:100AB000336830465B68984795F82530002BE0D0C6
:100AC000ECE7D8F8003040465B689847CCE7D9F8A7
:100AD000003048465B689847C3E700BF90F9242080
:100AE000531C26D01B4B2DE9F04153F82240D2B2C3
:100AF000ECB19300E1184D68B5B1E9184E6866B1E4
:100B0000F1184F6837B13B445968FFF757FF97F822
:100B10002530A3B996F8253063B995F825301BB177
:100B20002B6828465B68984794F8253063B9BDE880
:100B3000F0817047336830465B689847EDE73B6863
:100B400038465B689847E5E7236820465B68BDE860
:100B5000F0411847DC490020002310B4104C4172CA
:100B6000026104600372C36041B1194600E002698A
:100B700042F82310427A01339A42F8DC094B1A6892
:100B80000AB90AE01A465369002BFBD150610023D1
:100B900043618380C38010BC70471860F7E700BFD3
:100BA000B85701001C4E002038B50446194B0360AD
:100BB0000021012004F118020B46607222612172AB
:100BC000E16000E0226942F82310627A01339A4220
:100BD000F8DC114B1A680AB919E01A465369002B60
:100BE000FBD1546100250D4A0D4B0E492160236352
:100BF00020466561A580E58022624FF0884104F0BF
:100C000009FC47F6FF73E585A385204638BD1C60C7
:100C1000E8E700BFB85701001C4E0020E63C010089
:100C200082902C00945D01009C4B1B7803B17047AF
:100C3000F0B59B4C87B006F027FC236844F6206291
:100C4000C01A90420ED9974B1B784FF48071002B3D
:100C500000F0EE80032006F06DFA4FF4807105205D
:100C600006F068FA904D2B781BB38E4E3378002B2C
:100C700040F084808D4B1B78FBB98D4D8D4B8E4A97
:100C80008E4F00212970DC1C0220012608E057F855
:100C9000301081F88060A34200F0EB8013F8010F60
:100CA00012F8011B0029F2D057F8301081F80061CA
:100CB000F1E77E4B1B78002B75D0814B814E1B7862
:100CC0003BB13368804A0593059B12689B1A632BDE
:100CD00046D97E4B1B78002B00F0BD804FF480710D
:100CE000042006F027FA0120FFF7B6FD0220FFF7E7
:100CF000B3FD774B6E4D1978704F6E4C00232B70FF
:100D00000120DAB2914204D01A5D57F8322082F8FD
:100D100000010133042BF4D16E4A2B701378002BA1
:100D200076D033686C4A0493049B1068654C1B1A98
:100D3000322B13D924686948039403785D4C039DD2
:100D4000156083F001030370625C002B00F09F804C
:100D50005A4B53F83230012283F8802007B0F0BD9F
:100D60000020FFF779FD4FF48071032006F0E2F9CF
:100D70004FF48071052006F0DDF9BAE70020FFF797
:100D80006BFD0220FFF768FD4FF48071032006F031
:100D9000D1F9464B1B78002B8FD12B781BB13378C0
:100DA000002B3FF46AAF06F06FFB23684CF2503221
:100DB000C01A9042D2D9DFF82CE13D4DDFF8F4C0E3
:100DC0003E4F00242C7073460EF10400624601264B
:100DD00013F8011B31B1117857F8311081F8006117
:100DE00003F8014C834202F10102F1D13C4C3D4E2B
:100DF00023781EF8032004212970002AAED11CF8A4
:100E00000300012106F026FB23780122F254A5E716
:100E10003368314A0293029B10682A4C1B1A642BD8
:100E20009CD924682D4801940378224C019D87E7C2
:100E3000042006F07FF94FF48071052006F07AF95E
:100E4000294B1B78002B7FF40DAF4FF480710320EA
:100E500006F070F906E74FF48071042006F06AF995
:100E60004FF48071032006F065F90220FFF7F4FCCF
:100E70003FE7042300202B70FFF7EEFC0120FFF773
:100E8000EBFC4FF48071052006F054F966E70B4B3C
:100E900053F83230012283F800215FE7343B002011
:100EA000C43B0020152A0020044600204C490020A5
:100EB000A43B0020C057010048450020D45E01003B
:100EC000F94700201C4D0020D43D0020303F002079
:100ED0005846002098450020AC3D0020A83D002049
:100EE000F8470020D03D00201D2A002010B50A4BF5
:100EF0002C2404FB00F4181905F044FB0748204497
:100F000005F040FB0648204405F03CFB0548204422
:100F1000BDE8104005F036BB5C4600205C43002075
:100F2000F83C002048470020012907D001B1704754
:100F3000034A4FF48071105C06F0FCB8FFF78CBCDC
:100F4000185901002DE9F04F344C354985B00202A3
:100F500004EBC010029002F2FF300A440192314AC1
:100F600000900023039313702F4BDDF804A0029F21
:100F7000009C4FF000021A704FF00108204605F067
:100F8000F5FE0646601C05F0F1FE0546A01C05F0C6
:100F9000EDFE8346E01C05F0E9FEF6006D00A6F5C7
:100FA0008066A5F5807581463E80A7F800525846B8
:100FB0000AF0AEFD4FF070510AF0FEFD4FF07E5189
:100FC0000AF0F0FC184A4AF8040F08F1010382F80D
:100FD00000805FFA83F8A9F11009B8F1110FA7F8A2
:100FE000009404F1040407F10207C7D1039B0D4AE2
:100FF00003F101095FFA89F31370009A03934032F9
:101000000092029A20320292019A042B02F14002CD
:101010000192A9D105B0BDE8F08F00BF34350020A2
:10102000403F0020A43B0020A53B00201E4B2DE9A3
:10103000F0471E4D1E4E03EB80134FF001094FF099
:101040000008074603F1FF3A09EBC00985F8008064
:10105000484605F08BFE044609F1010005F086FEC6
:101060005146002344FA03F202F0010201F8012F75
:1010700040FA03F2013302F00102082B0A72F1D1A7
:1010800008F101085FFA88F8B8F1040F85F80080CC
:10109000337009F102090AF1100AD9D13846BDE8C6
:1010A000F047FFF74FBF00BF0C440020A43B0020D7
:1010B000A53B00202DE9F04FDFF8F090394FDFF825
:1010C000F0A083B04FEA00280024830008F2FF3824
:1010D000019389F8004000263E70019B324A1D1999
:1010E00006EB051505F5807352F825003AF9133023
:1010F00003F58073C3F347034FF07E5100930AF06A
:1011000053FC4FF086410AF057FD0AF041FF05F508
:10111000007E3AF915101AF81EE04FF0400B1BFB49
:10112000048C042501F580610EF1100EC4B2C1F3E8
:10113000C70105FB06C05FFA8EF605F031FE99F88F
:1011400000003978009B1BFB008015FB010001307B
:10115000194605F025FE99F800003B781BFB00803E
:1011600015FB03002146023005F01AFE99F8000035
:101170003B781BFB008B15FB03B03146033005F0B9
:101180000FFE3E78094B0136F6B20F2E3E701C78EA
:10119000A3D90134E4B2032C1C709CD903B0BDE880
:1011A000F08F00BFA53B0020443F0020A43B00205F
:1011B000343500202DE9F04F264CDFF8A8A0DFF8E9
:1011C000A89007460125002083B005EBC7052070D5
:1011D0004FF00408022618FB070C4FF0000E0AEB34
:1011E0000C1C0CF1FF3CF34671461CF8013F9CF8C7
:1011F000082003FA0EF302FA0EF20EF1010E194462
:10120000BEF1080F0BEB0203C9B25FFA83FBECD10E
:1012100006FB005089F800E005F0C2FD207816FBBF
:1012200000500130594605F0BBFD20780130C0B2B6
:1012300003282070CFD93846FFF73CFF064B074AFA
:101240001B6801930199064B116001221A7003B0CB
:10125000BDE8F08FA43B00201C4D0020D43D0020B1
:10126000F94700200C440020A53B00202DE9F04F59
:10127000DFF88082DFF880B2002491B088F8004067
:1012800002204FF0010A012106F0F8F898F800302A
:101290008D4A0021D05C06F0DDF898F8006033013B
:1012A00003F13F0003F17F0103F1BF0258445944A9
:1012B0005A445B4400250135102D03F8014B00F81A
:1012C000014F01F8014F02F8014FF4D114210DEB49
:1012D00001007E4FCDF804A08146CDF800A019236F
:1012E0003D70002203954D4605F09EF80FCD784FD6
:1012F0004FF02C0909FB06760FC60FCD0FC695E8F7
:10130000070003C605A83270029505F0A1F898F809
:10131000000009FB007005F035F998F800004FF463
:10132000007109FB007005F095F86A4F98F80060AD
:10133000CDF804A04FF40075CDF800A0192347F8AC
:10134000265000220F2105A805F06EF80DF1140EAD
:10135000BEE80F00604D029F09FB06560FC6BEE8AF
:101360000F000FC697E8070003C605A8327005F006
:101370006FF898F8000009FB005005F003F998F8A1
:1013800000004FF4007109FB005005F063F8534D65
:1013900098F800600399CDF804A04FF08A0ECDF8BC
:1013A00000A0192345F826E0002205A805F03CF826
:1013B0000DF1140EBEE80F00494D029709FB0656C9
:1013C0000FC6BEE80F000FC697E8070003C605A8C2
:1013D000327005F03DF898F8000009FB005005F068
:1013E000D1F898F800004FF4007109FB005005F0A7
:1013F00031F83C4D98F80060CDF804A04FF07C57D0
:10140000CDF800A0192345F8267000220E2105A86A
:1014100005F00AF80DF1140EBEE80F00324D09FB7D
:1014200006560FC6BEE80F000FC6029B93E80700E2
:1014300003C605A8327005F00BF898F800000021EB
:1014400009FB005005F006F898F8000009FB005071
:1014500005F098F898F800202449039841F82200F4
:10146000531CDBB2032B88F8003002D8164AD05C3C
:1014700009E7002005F07AFC42284FF0000000F058
:101480005181FFF797FE0120FFF794FE0220FFF73E
:1014900091FE0320FFF78EFE4221002005F080FC24
:1014A0000B48134C05F072F80B4805F06FF80C4828
:1014B00005F06CF80C4805F069F80023254688F81B
:1014C000003004201BE000BFC0570100A53B0020F6
:1014D0005C460020C03D00205C430020203F0020EF
:1014E000F83C0020084600204847002048460020DD
:1014F00018590100A43B00200C440020E85C0121A5
:1015000005F0BCFF98F800300121E05C05F0A2FF77
:1015100098F800300133DBB2022B88F80030EDD9A7
:101520000121084605F0AAFF0021084605F0A6FFA4
:101530000221122005F0A2FF02210B2005F09EFFE0
:101540000221132005F09AFF02210A2005F096FFE0
:101550000221062005F092FF0221072005F08EFFF0
:101560000221082005F08AFF0221092005F086FFEC
:101570000121162005F082FF80217048704D714FC7
:10158000714CDFF834A2DFF8349206F04DFF6F4A59
:101590006F4B704929634FF08048C2F800804FF4C8
:1015A000C0329A616C4ADA614BF233321A622846D1
:1015B0004AF266622F6200215A6203F001FF284658
:1015C0004FF07C5103F026FF644A6549654B9161F9
:1015D000A1F51F61D1616449596251626349644A4E
:1015E000996110260125634816760439D96155762C
:1015F000276220636049204603F0E2FE20464FF058
:101600007C5103F007FF5D4B5D4C1E765D764FF01D
:101610007E51504604F0C6FE41F2411250465949EF
:10162000CAF8407004F0A6FE48464FF07E5104F020
:10163000B9FE484641F241225349C9F8407004F0CE
:1016400099FE524A524BDFF878E116765576514AA8
:10165000C4F830E01E765D7622622046002103F059
:10166000AFFE2046002103F0D5FE4B4B4B4F4C49BB
:10167000C3F800800422002005F08AFC40F2DF124B
:101680004849384607F0A6F83968F4223A7121B182
:10169000454B46480B441B111A54082005F048FEE0
:1016A0004349042005F054FE4149032005F050FE53
:1016B0003F49052005F04CFE002005F04DFA0423BB
:1016C000022212213B4802F0B9FF042302220B211F
:1016D000384802F0B3FF042302221321354802F0F8
:1016E000ADFF042302220A21324802F0A7FF04239F
:1016F000022206212F4802F0A1FF04230222072123
:101700002C4802F09BFF042302220821294802F002
:1017100095FF042302220921264802F08FFF11B011
:10172000BDE8F08FFFF782FC0120FFF77FFC02206D
:10173000FFF77CFC0320FFF779FCB1E60082FF1F76
:10174000883C0020D9610500C03C002088E100E011
:10175000284800201BBD1A00666601000C470020C7
:10176000F8037602483B002080F9855A7100460054
:101770002C490020586B3B00CDCC4C3F1846002034
:10178000E83E002094C90000980E01005049002056
:1017900070490020344D4A0008E100E04443002035
:1017A000210D0020010E0020008FFCBF44E400E06A
:1017B000001B3748D83D0020203C0020C83B0020BB
:1017C0006C3152022DE9F84F2C4D2D4F2D4EDFF884
:1017D000C08000242C7097F800B096F800A02A482A
:1017E0004FF4806107F0FCF90AEB8B0A04EB0A1452
:1017F00097F800B096F800A028F814002C780AEBAF
:101800008B0A4FF480716FF0FF0007F0E9F904EBE9
:101810000A1404F580744FF4806128F814001A4803
:1018200096F800A02C7897F800B007F0D9F90AF0E4
:101830006FF94FF06A510AF0BFF90AEB8B0B134BAB
:1018400097F8009095F800A004EB0B1B347843F850
:101850002B000C216FF00B0007F0C2F904EB890399
:101860002C780AEB031A0134E4B20AF5007A0F2C43
:1018700028F81A002C70AED9BDE8F88FA53B0020DF
:1018800058460020F847002000FCFFFF443F00209E
:10189000343500202DE9F04F2C4A2D4D2D4C03B24C
:1018A00085B005EB831504EB002402EBC313081A83
:1018B000A3F1020983014E1C02930302039302EB7E
:1018C000C613019302EBC11305F1FF3BA4F1040A17
:1018D0000093029B0BEB030E039B0AEB0305009B9B
:1018E00009F5007709F580665446484659460022B6
:1018F00030F902CFA3F800C037F902CFA3F800C235
:1019000036F902CFA3F800C4013211F8018F54F860
:1019100004CF0EF8018F102A03F1020345F804CF1B
:10192000E6D1009B019920338B4200930BF1100B01
:1019300009F120090AF1400ACBD10749074B0A7087
:1019400004221A7005B0BDE8F08F00BF34350020C6
:101950000C440020443F0020A53B0020A43B002075
:101960000FFA80FC1D491E4A2DE9F0434FEACC13C3
:101970001C4CA3F1020E01EB00287E3302EB8C1C01
:1019800004EB03090027A8F104080CF1FF3CA6446E
:1019900000230EF500760EF58065444670466146DC
:1019A00000220132102A20F8023F01F8013F26F8F8
:1019B000023F44F8047F25F8023FF2D10EF1200ED9
:1019C000CE450CF1100C08F14008E2D10649074B56
:1019D0000A7004221A70BDE8F08300BF443F002063
:1019E0000C44002034350020A53B0020A43B0020FF
:1019F0002DE9F04F87B014F03BFD14F041FD14F0D9
:101A000033FD714B1B78002B36D1704B0393FFF7DE
:101A10000BF96F4A6F4B12680592059A1B686E4866
:101A200003996A4D0978D31A834294BF0023012396
:101A30008B421ED9694B1C78002C40F0B0810126E6
:101A4000214620462E70FFF76FFA21463046FFF7F9
:101A50006BFA21460220FFF767FA614A614B166074
:101A6000042020218022186019605F481A6002F06B
:101A7000E1F907B0BDE8F08F5C4BDFF8C4A11B783B
:101A80009AF800908BB15A4B1B7873B119F0030F81
:101A90000BD1584BB9F1000F01F06882564A1A6316
:101AA000544803F083FC9AF80090544D544E2F781C
:101AB000BF01F319C84613F80930002B40F0C48069
:101AC000424B0393F31943441B7C002B00F07482B8
:101AD0004C4B5B78002B40F06F824B4C6378002BB3
:101AE00040F05882494B4A4A1B784FF080411160C0
:101AF000002B00F0A181474B1B78012B40F09C810B
:101B000007EB080303F58873DFF838B1424A3BF965
:101B1000130053681844002841F37783B0F5007F21
:101B2000A8BF4FF4007009F0F3FF3C490AF044F8F5
:101B30000AF008FA3A4B93FBF0F307EB0802103275
:101B400038493948DFF8E48051F822104068C8F875
:101B5000203009F029FF002107460AF0CBF90028C0
:101B600041F050834FF07E5138460AF0E1F90028E9
:101B700001F045834FF07E512C4803F04BFC29784F
:101B80009AF800202A4B8901881800F504705B68D8
:101B90003BF910001B1A032B41F31483102BA8BF31
:101BA0001023DBB20A441032224F3BF9120079684D
:101BB000214A0844B0F5806FA8BF4FF4806020EA46
:101BC000E0701E4913769AE11C2A0020343B002065
:101BD0001C4D0020A83B0020804F12001D2A002031
:101BE000C8F00F4088F00F40CC450020152A002097
:101BF000C4490020E83E0020C09C8D0258460020C9
:101C00000C4400204845002024480020284900209A
:101C100088E100E0F847002038450020797830421C
:101C20000000FF7F443F0020B03D0020C03C00206A
:101C300010480020F44500201846002000004843CA
:101C40005946002034350020624B1B78002B7FF46E
:101C500037AF614C2378002B40F08A805F4B604A9D
:101C60001B784FF080411160002B41F0838107EB1E
:101C7000090303F58073DFF8BCB15A4A3BF913003E
:101C800013681844002841F38582B0F5007FA8BF8F
:101C90004FF4007009F03CFF534909F08DFF0AF042
:101CA00051F9524B93FBF0F3514A5249DFF8488106
:101CB0001068C8F820304F4451F8271009F074FE1E
:101CC000002107460AF016F9002841F060824FF023
:101CD0007E5138460AF02CF9002801F067824FF057
:101CE0007E51454803F096FB28789AF80010434B44
:101CF0008001421802F500721B683BF912209B1A02
:101D0000032B41F30082102BA8BF1023DAB2014449
:101D10003B4B3BF911001B683A4F3B493A7618445C
:101D2000B0F5806FA8BF4FF4806020EAE07014F037
:101D3000A3FB364909F038FE002107460AF0DAF81D
:101D4000002841F02182324938460AF0F1F8002893
:101D500001F0EE812F48304BC8F830004FF0804240
:101D600025481A6003F022FB2F789AF80080BF0103
:101D70002A4B1B7800222270002B7FF4A1AE284A48
:101D80001178002941F05C81264B03931B78002BCE
:101D90007FF498AE244901230B60137092E6002172
:101DA000012408462C70FFF7BFF820460021FFF7FA
:101DB000BBF800210220FFF7B7F81C4A1C4B146047
:101DC000042020218022186019601A6007B0BDE845
:101DD000F08F00BF484500202448002028490020FB
:101DE00088E100E0203F0020797830420000FF7F4A
:101DF00008460020443F0020883C00204846002040
:101E0000C03D00202C4900200000C8420000C8410D
:101E1000A655AC46C0FFFF3F08E100E04C4900205A
:101E2000D03D0020343B0020C4F00F40C8F00F40EC
:101E300088F00F403435002007EB080303F5887362
:101E4000DFF87CB3BD4A3BF91300536818440028FF
:101E500041F30D81B0F5007FA8BF4FF4007009F089
:101E600057FEB74909F0A8FE0AF06CF8B54A92FB94
:101E7000F0F207EB08031033B349B448DFF8D0821F
:101E800051F823104068C8F8202009F08DFD00218A
:101E900007460AF02FF8002841F059814FF07E5193
:101EA00038460AF045F8002801F083814FF07E5152
:101EB000A74803F0AFFA29789AF80030A54A8901BB
:101EC000C81800F5047052683BF91000121A032A72
:101ED00041F31281102AA8BF1022D2B20B44103352
:101EE0009D4F3BF9130079689C4B0844B0F5806F17
:101EF000A8BF4FF480609A491A7620EAE07014F087
:101F0000BBFA984909F050FD0021814609F0F2FF23
:101F1000002841F04281944948460AF009F8002817
:101F200001F0F480914829789AF800207B68C8F87D
:101F3000300002EB8112103289493BF9120018443B
:101F4000B0F5806FA8BF4FF4806020EAE07014F015
:101F500093FA844909F028FD8549074609F0CAFF2C
:101F6000002841F0CC808349384609F0E1FF002881
:101F700001F0F0808048814F814B9F61D861814B97
:101F800073484FF080421A6003F010FA2F789AF8E5
:101F90000080BF017C4B1B780022627063B97B4AD2
:101FA0005178002941F04680039B1B7823B978497A
:101FB0000420012308605370F319434493F8203040
:101FC000002B00F0B080734B9B78002B40F0AB806F
:101FD000714CA378002B40F09480704B704A1B78B2
:101FE0004FF080411160002B00F0B3816D4B1B78E6
:101FF000022B40F0AE8107EB080303F59073DFF886
:10200000C0B1694A3BF9133092689B1812D441F26F
:1020100088309842A8BF184609F07AFD4849DFF891
:10202000909109F0C9FD09F08DFF464B93FBF0F04C
:10203000C9F8400007EB080320335C4A4249906826
:1020400051F8231009F0B0FC0021074609F052FFB7
:10205000002841F0CE804FF07E51384609F068FFED
:10206000002801F0C3804FF07E51514804F0AAF9D6
:1020700029789AF800304F4A03EB81132033926895
:102080003BF91300104409F043FD4FF06A5109F089
:1020900093FD4FF07C5109F087FC0021074609F0C1
:1020A00029FF002841F099804FF08041384609F01F
:1020B0003FFF002801F08E804FF080413C4804F043
:1020C00071F92A789AF800303B4903EB821202F545
:1020D00008728B683BF912209B1A032B40F3F087A0
:1020E000102BA8BF1023DBB2344A31481376254B9E
:1020F0004FF080421A6004F017F92F789AF80080A8
:10210000BF01214B1B780022A27063B91F4A91784E
:10211000002940F09D87039B1B7823B91C49202090
:10212000012308609370F319434493F83030002B77
:1021300048D0184BDB78002B56D043E0203F0020DE
:10214000797830420000FF7F443F0020084600209D
:10215000C03C002048460020C03D0020184600201A
:102160000000484300008242A655AC46C0FFFF3F36
:102170000000A0411EDE8946008C3C4B00BE6C5026
:10218000483B002008E100E04C490020D03D002001
:1021900084F00F40484500202448002028490020B2
:1021A00088E100E0F847002038450020B03D0020DD
:1021B000C83B0020F4450020104800205049002072
:1021C00034350020984B1B78002B40F0DB819AF8C7
:1021D00000309B0704D1039B1878002800F0B080E2
:1021E000924A0023137012E4914CE378002B40F0E4
:1021F0009080904B904A1B784FF080411160002BEB
:1022000000F042818D4B1B78032B40F03D8107EBA2
:10221000080303F59873DFF86CB2894A3BF9133071
:10222000D2689B1812D441F288309842A8BF184651
:1022300009F06EFC8349DFF81C9209F0BDFC09F03F
:1022400081FE814B93FBF0F0C9F8400007EB0803D7
:1022500030337E4A7E49D06851F8231009F0A4FB40
:102260000021074609F046FE002840F0BC874FF0E9
:102270007E51384609F05CFE002800F0B1874FF02F
:102280007E51744804F09EF829789AF80030724A1A
:1022900003EB81133033D2683BF91300104409F08B
:1022A00037FC4FF06A5109F087FC4FF07C5109F080
:1022B0007BFB0021074609F01DFE002840F09C87AB
:1022C0004FF08041384609F033FE002800F07D874A
:1022D0004FF080415F4804F065F82A789AF80030A2
:1022E0005E4903EB821202F50C72CB683BF91220B7
:1022F0009B1A032B40F3E186102BA8BF1023DBB2FF
:10230000574A54481376574B4FF080421A6004F0F6
:102310000BF8554B1B780022E270002B7FF452AF74
:10232000524AD178002940F09986039B1B78002BF4
:102330007FF448AF4E49802001230860D37041E705
:10234000FEF78AFA0120FEF787FA0220FEF784FAE8
:1023500046E707EB080303F59073DFF828B1454A19
:102360003BF9133092689B1812D441F2883098429E
:10237000A8BF184609F0CCFB3249DFF8FC9009F001
:102380001BFC09F0DFFD304B93FBF0F0C9F8400077
:1023900007EB080320332D4A2D49906851F823108C
:1023A00009F002FB0021074609F0A4FD002840F0D7
:1023B0005B864FF07E51384609F0BAFD002800F0E8
:1023C000EF864FF07E512C4803F0FCFF29789AF8F5
:1023D00000302A4A03EB8113203392683BF9130043
:1023E000104409F095FB4FF06A5109F0E5FB4FF0FE
:1023F0007C5109F0D9FA0021074609F07BFD00283D
:1024000040F0BF864FF08041384609F091FD00282A
:1024100000F08B864FF08041174803F0C3FF2A7805
:102420009AF80030164950E60C4500201C2A00207E
:10243000244800202849002088E100E0F8470020D7
:1024400038450020797830420000FF7F08460020A0
:10245000443F0020203C0020F4450020104800208C
:102460007049002008E100E04C490020D03D0020E8
:1024700084F00F40203F0020C83B0020C03D0020DA
:10248000484600203435002007EB080303F5987315
:10249000DFF8ECB0324A3BF91330D2689B1812D403
:1024A00041F288309842A8BF184609F031FB2D4907
:1024B000DFF8C09009F080FB09F044FD2A4B93FB44
:1024C000F0F0C9F8400007EB08033033274A2849E9
:1024D000D06851F8231009F067FA0021074609F087
:1024E00009FD002840F0C6854FF07E51384609F0BE
:1024F0001FFD002800F057864FF07E511D4803F065
:1025000061FF29789AF800301B4A03EB81133033BE
:10251000D2683BF91300104409F0FAFA4FF06A51FF
:1025200009F04AFB4FF07C5109F03EFA00210746C2
:1025300009F0E0FC002840F007864FF08041384663
:1025400009F0F6FC002800F0ED854FF080410948C5
:1025500003F028FF2A789AF800300849C1E600BF46
:10256000203F0020797830420000FF7F084600209D
:10257000443F0020203C0020C03D00204846002071
:10258000343500200A21D048DFF8A8B3CF4F05F03A
:1025900047FE1121CE4805F043FE1021CD4805F03D
:1025A0003FFE28789AF800203B68CB4902EB801266
:1025B00002243BF912001844B0F5806FA8BF4FF415
:1025C000806020EAE07013F057FFC44909F0ECF98D
:1025D00008F070FE009402460B46C14806F0F0F980
:1025E0000321C04805F01CFE28789AF800207B687B
:1025F000BD4902EB801210323BF912001844B0F5CD
:10260000806FA8BF4FF4806020EAE07013F034FFC1
:10261000B64909F0C9F908F04DFE009402460B4690
:10262000AF4806F0CDF90321AE4805F0F9FD297851
:102630009AF80030BA6803EB811320333BF913009A
:10264000104409F065FA4FF06A5109F0B5FA4FF0FD
:102650007C5109F0A9F90021044609F04BFC00283F
:1026600040F015854FF08041204609F061FC0028BC
:1026700040F07784204608F01DFE02460B460221FA
:102680000091974806F09CF90321964805F0C8FD93
:1026900029789AF80030FA6803EB811330333BF95C
:1026A0001300104409F034FA4FF06A5109F084FA2B
:1026B0004FF07C5109F078F90021044609F01AFC2A
:1026C000002840F0E0844FF08041204609F030FCC3
:1026D000002840F04184204608F0ECFD02460B46FD
:1026E000022700977E48824C06F06AF97C4806F083
:1026F0000DF90D217F4805F093FD7F4803F04AFF57
:102700000146774806F052F939467C4805F088FDC5
:102710007B4803F03FFF0146714806F047F9394610
:10272000764805F07DFD774803F034FF01466C489C
:1027300006F03CF93946714805F072FD724803F025
:1027400029FF0146664806F031F913216F4805F06C
:1027500067FD29789AF80020236802EB811202F5C0
:1027600080723BF912101944002940F38984B1F5B5
:10277000007FA8BF4FF40071594806F017F90221F5
:102780005E4805F04DFD29789AF80020636802EB59
:10279000811202F588723BF912101944002940F3A6
:1027A0006C84B1F5007FA8BF4FF400714C4806F06F
:1027B000FDF80221514805F033FD29789AF80020F0
:1027C000A36802EB811202F590723BF912101944D2
:1027D000002940F36C84B1F5007FA8BF4FF400716D
:1027E0003F4806F0E3F80221444805F019FD297836
:1027F0009AF80020E36802EB811202F598723BF927
:1028000012101944002940F34F84B1F5007FA8BF8E
:102810004FF4007132483E4C06F0C8F80E213D4896
:1028200005F0FEFC3C4803F0B5FE01462C4806F0DE
:10283000BDF80221314805F0F3FC384803F0AAFE48
:102840000146274806F0B2F802212C4805F0E8FCC2
:10285000334803F09FFE0146214806F0A7F8022105
:10286000264805F0DDFC2F4803F094FE01461C4885
:1028700006F09CF811212C4805F0D2FC2A789AF831
:102880000030216803EB8213284A52F8230009F034
:102890008BF80021074609F02DFB002840F0018449
:1028A0004FF07E51384609F043FB002800F01784B2
:1028B0001F4B002202270097094806F081F839468D
:1028C0000E4805F0ADFC37E0C4570100C03D0020C4
:1028D000D0570100E45701000000C8420000C84181
:1028E000202C0020F85701000000484300008242DD
:1028F000203F0020FC5701005C4600202C580100BE
:1029000088460020B4460020E04600200C58010014
:1029100008460020205801005C4300208843002026
:10292000B4430020E043002030580100443F002021
:102930000000F03F343500202A789AF800306168B2
:1029400003EB82131033874A52F8230009F02CF866
:102950000021074609F0CEFA002840F09F834FF08F
:102960007E51384609F0E4FA002800F0B2837E4B2D
:102970000022022700977D4806F022F839467C485D
:1029800005F04EFC2A789AF80030A16803EB821318
:102990002033744A52F8230009F006F80021074654
:1029A00009F0A8FA002840F076834FF07E513846AF
:1029B00009F0BEFA002800F099836B4B0022022731
:1029C00000976A4805F0FCFF3946694805F028FC85
:1029D0002A789AF80030A16803EB82132033614A09
:1029E00052F8230008F0E0FF0021044609F082FAC3
:1029F000002840F05F834FF07E51204609F098FA9E
:102A0000002800F06083584B0022022100915748B3
:102A1000584C05F0D5FF1121574805F001FC574BE4
:102A20001A78574B2C2000FB023003F0B3FD01460F
:102A30004E4805F0BBFF0121524805F0F1FB4F4B1A
:102A40004A481B7854F82310C1F1100101EB8101B1
:102A500001EB011105F0AAFF01214A4805F0E0FB56
:102A6000464B42481B7854F8231005F09FFF012184
:102A7000444805F0D5FB414B3C481A78424B53F88B
:102A8000221005F093FF01213E4805F0C9FB3B4BA6
:102A900028781A789AF8003054F8221002EB800255
:102AA00003EB021303F5007330483BF91330C91AE6
:102AB00005F07CFF2D4805F029FF344B1B78002BD7
:102AC0003FF485AB00213248324C05F0A9FB274882
:102AD00005F01CFF0023237013F0030F4FF00201D9
:102AE0002D4818BF2D482B4F18BF022105F098FB29
:102AF00023780133DBB20F2B2370EDD9002124485A
:102B000005F08EFB194805F001FF9AF8003000220D
:102B10003A705BB101211B4805F082FB23789AF8DB
:102B200000200133DBB29A422370F3D801211C4804
:102B30001C4F05F075FB0D4805F0E8FE0021144818
:102B400005F06EFB094805F0E1FE0A21164805F084
:102B500067FB002213463A70B9464FF0000222701C
:102B6000002225E0443F00200000F03F202C002000
:102B70002C5801004846002044580100F847002026
:102B80004847002040580100104800200C45002014
:102B9000F4570100A43B0020585801005C58010084
:102BA00060580100A53B00206458010099F80030EE
:102BB0002978BC4803EB810306EB03130A219B5CD5
:102BC0000BB9B9480A2105F02BFB29783B7822780C
:102BD000B648DFF8F08203EB810306EB0313995C40
:102BE00005F0E4FE0121B24805F01AFB227801321B
:102BF000D2B20F2A2270D9D90A21AB4805F010FBB6
:102C00000021AC4805F00CFBA84805F07FFEAA4B5C
:102C1000A94A1B780133DBB2032B13709DD99AF8B4
:102C20000030002288F800205BB10121A04805F0A7
:102C3000F7FA23789AF800200133DBB29A42237026
:102C4000F3D801219D4805F0EBFA984805F05EFEA7
:102C50000021984805F0E4FA944805F057FE002357
:102C60002370974A297812789048964E02EB810299
:102C700003EB02133BF9131005F098FE01218C4879
:102C800005F0CEFA23780133DBB20F2B2370E8D99D
:102C90000021884805F0C4FA844805F037FE002377
:102CA0003370874A297812788048864E02EB810279
:102CB00003EB021303F580733BF9131005F076FE66
:102CC00001217B4805F0ACFA23780133DBB20F2BEE
:102CD0002370E6D90021774805F0A2FA734805F081
:102CE00015FE00233370764A297812786F48754EA6
:102CF00002EB810203EB021303F500733BF913109F
:102D000005F054FE01216A4805F08AFA2378013360
:102D1000DBB20F2B2370E6D90021664805F080FA5C
:102D2000624805F0F3FD00233370654A2978127874
:102D3000DFF8EC81634F02EB810203EB0213624A7E
:102D400052F8230008F0B6FA02260B460246009617
:102D5000564805F035FE0121554805F061FA237803
:102D60000133DBB20F2B2370DFD900215148574DBF
:102D700005F056FA4D4805F0C9FD2B78002B3FF4BD
:102D800026AA1921524805F04BFA484805F0BEFD25
:102D90000521504805F044FA4F4B4448198805F086
:102DA00005FE06214D4805F03BFA4D4B188808F00A
:102DB000AFFE4C4908F0F8FD4B4908F0B1FF08F0B0
:102DC00079FA009602460B46384805F0F9FD0121D4
:102DD000374805F025FA454B188808F099FE414917
:102DE00008F0E2FD404908F09BFF08F063FA009606
:102DF00002460B462D4805F0E3FD2C4805F086FD04
:102E000008213B4805F00CFA3A4B284819780A2269
:102E1000002305F08BFD0121254805F001FA364B12
:102E2000224819780A22002305F080FD1F4805F08A
:102E30006DFD0C21314805F0F3F9314B1B48197831
:102E400005F0B4FD194805F061FD2B78002B3FF427
:102E5000BEA91A212B482C4D05F0E2F9134805F0C4
:102E600055FD0D21294805F0DBF9294B0F4819784C
:102E70000A22002305F05AFD1121264805F0D0F959
:102E800000230A2298F80010084805F04FFD0E2193
:102E9000214805F0C5F9214B044819780A2200237E
:102EA00040E000BF7058010064580100202C002051
:102EB00040580100F4570100A53B00207C58010058
:102EC000F8470020A43B0020443F00200C45002090
:102ED000805801009C580100C03B0020A45801000C
:102EE000444E00207B14AE427B142E432A4E002019
:102EF000AC580100294E0020204E0020B858010097
:102F000004460020C8580100C0450020E4580100D4
:102F1000142A0020F458010008590100C845002077
:102F20005846002005F002FDB94805F0EFFC0023EB
:102F30003B700121B74805F073F92378B448E95C88
:102F40000A22002305F0F2FC23780133DBB2072BC1
:102F50002370EED9FFF73BB900224FF08043FFF713
:102F6000BFBB00224FF08043FFF789BBAA4A1A6318
:102F7000FEF796BDA94B1B78002B7EF478AE07EBCD
:102F8000090303F58073DFF8E0B2A54A3BF91300AB
:102F900013681844002840F31381B0F5007FA8BFE0
:102FA0004FF4007008F0B4FD9E4908F005FE08F0EB
:102FB000C9FF9D4B93FBF0F39C4A9D49DFF8748257
:102FC0001068C8F820304F4451F8271008F0ECFC86
:102FD0000021074608F08EFF002840F0EF804FF0F8
:102FE0007E51384608F0A4FF002800F0F1804FF031
:102FF0007E51904802F00EFA29789AF800208E4B04
:103000008901881800F500701B683BF910001B1A35
:10301000032B40F3D180102BA8BF1023DBB20A444E
:1030200086493BF91200864F0A683B768549104471
:10303000FEF776BE8449042008605370FEF7BCBFDB
:10304000824883490390012008601370FEF73ABD5F
:103050007D49202008609370FFF765B87A49802089
:103060000860D370FFF7AEB80021FFF7ACB9794A1A
:10307000FEF7FFBE0021FFF741BA0121FFF796BB23
:103080000121FFF779BB00220023FFF729BB0022B3
:103090000023FFF7F4BA0022002390E4002200236B
:1030A00067E40022002305E40121FFF7B3BB0121FF
:1030B000FFF796BB00220023A7E40423FFF720B903
:1030C0000423FFF711B8204608F0F4F802460B4637
:1030D0009BE4384608F0EEF802460B4649E43846D1
:1030E00008F0E8F802460B46FFF7E4BB384608F064
:1030F000E1F802460B4662E40422FEF7EFBE5648B2
:10310000564FFEF739BF0422FEF701BE4846544928
:1031100008F052FD4FF07C5108F046FC08F038FFF3
:10312000FEF701BF3946FFF712BA3946FFF774B907
:1031300038464B4908F040FD4FF07C5108F034FC14
:1031400008F026FFFEF707BE0021FFF700BA0021B6
:10315000FEF7AEBE3846434908F02EFD4FF09E41C3
:10316000804608F029FD08F0EDFE0746404605F0D0
:10317000A3FF4FF09E4108F01FFD08F0E3FEFEF7AD
:10318000FBBE0021FFF748B90020FEF7E4BD002197
:10319000FEF7A7BD2F4BFEF787BD0020FEF7C3BE8D
:1031A0003946FFF710B93946FFF7A8B93946FEF797
:1031B00098BD3946FEF77CBE042330E7002118E7AE
:1031C000244BF9E60423FEF7EDBC3946FFF782B83D
:1031D00039460EE73946FEF771BF0021FEF76EBF94
:1031E0003946FFF74EB80021FFF74BB83946FEF7D6
:1031F0003CBF0021FEF739BF0021FFF76BB839460D
:10320000FEF7BABC0021FEF7B7BC124BFEF795BC27
:10321000202C0020A058010080391B05F847002011
:1032200038450020797830420000FF7FB03D002013
:10323000443F0020883C002010480020F445002036
:103240002C4900200000C84288F00F40343B002089
:10325000C8F00F405DB4E8027A5517007B5517009F
:103260004B243E4746561538343500202DE9F04FA3
:103270000646DFF80083BD4FDFF8FC9298F8005057
:1032800037604FF0FF0E86F824E0DFF8F0A299F8DF
:1032900000E00020062D86F8250086F8260098BF5D
:1032A00088F800005AF82E0097B00C46002800F06D
:1032B000EA81884200F0958005464FEA8E0102E0DF
:1032C000AC4200F08E800D446D68002DF8D10546AB
:1032D00005EB010CDCF80450002DF9D1CCF80440CA
:1032E00006EB010B98F80040CBF804504FFA8EFC27
:1032F0008DF82D508DF82E50062C4FF0FF058DF8CF
:103300002C50029786F824C0154605D8002488F86A
:103310000040002800F0F081824200F0E88004467E
:1033200002E0A24200F0E3800C446468002CF8D173
:10333000044600E02C460C446568002DFAD162601A
:1033400098F800400C9716AA0A444FF0FF0B062C81
:1033500042F84C5C8DF855508DF856508DF854B0AD
:103360008DF82CC040F27981984200F00981024624
:1033700002E09A4200F004810A445268002AF8D11F
:10338000451868680028FBD16B6016AB19440EF134
:10339000010E0020BCF1FF3F41F8240C89F800E049
:1033A0008DF854C00C9700F0EF80714B53F82C202F
:1033B0000CA98A4240F0E8805AF82C204FEA8C048D
:1033C00022B111194A684860002AFAD199F8002000
:1033D0000021013A89F800204AF82C1043F82C10FB
:1033E000D2E098F8005002970021FF24062D8DF8B6
:1033F0002C408DF82D108DF82E10DFF870B1DFF80D
:1034000074C100F2D18090428CF8001000F0C081AD
:103410000D4604464FEA8E0102E0A24200F0098107
:103420000C446468002CF8D1044600E064460C4467
:10343000D4F804C0BCF1000FF8D1626016AA0A44A7
:103440004FFA8EFBFF24062D42F84CCC0C978DF8DA
:1034500055C08DF856C08DF854408DF82CB040F210
:10346000F980984200F00281024602E0934200F0A7
:10347000FD800A445268002AF8D144186068002888
:10348000FBD116AA11440EF1010EBBF1FF3F6360A0
:1034900089F800E041F8240C8DF854B00C9706D060
:1034A000334B53F82B200CA98A4200F04381BBF127
:1034B000FF3F029774D02E4B53F82B1002AA914273
:1034C0006ED15AF82B203AB14FEA8B040020111923
:1034D0004A684860002AFAD199F800200021013A90
:1034E00089F800204AF82B1043F82B1058E098F880
:1034F00000400C97FF250022062C8DF854508DF8C3
:1035000055208DF856201B4D40F2A280834237D0C3
:10351000024601E0934233D00A445268002AF9D1AE
:10352000451868680028FBD116AA11440EF1010E57
:10353000BCF1FF3F6B6089F800E041F8240C8DF886
:1035400054C00C9720D00A4B53F82C200CA98A4267
:103550001AD15AF82C20002A3FF438AF4FEA8C04D5
:1035600011194A684860002AFAD12FE7A4570100D0
:10357000FC490020040400201D4A0020DC490020F2
:103580000EF1010E89F800E09DF92C000297431C12
:1035900006D0A64B53F8201002AA914200F0978063
:1035A000304617B0BDE8F08F90427FF432AFCDF8CF
:1035B00030B08DF854408DF855108DF85610984263
:1035C00059D002464FEA8E0101E09A4253D00A4494
:1035D0005268002AF9D1441860680028FBD116AA65
:1035E0004FFA8EF511440EF1010E6A1C636089F8E2
:1035F00000E041F8240C0C978DF85450D0D08B4B40
:1036000053F825100CAA9142CAD15AF82520AC00D3
:1036100022B111194A684860002AFAD199F80020AD
:103620000021013A89F800204AF8251043F82510B6
:10363000B6E70022FF21062D0C978DF854108DF867
:1036400055208DF85620BAD8002288F80020B6E719
:103650002A705BE788F800C003E70546002288F877
:103660000020002D00F09D8028467DE60EF1010E21
:1036700089F800E01BE70EF1010E304689F800E002
:1036800017B0BDE8F08FBEF1000F68D04FEA8E0191
:10369000DFF898C198F800B04CF82E60751800203B
:1036A0004AF82E404FFA8EFC6860BBF1060F4FF0CF
:1036B000FF058DF82D008DF82E008DF82C50029707
:1036C00086F824C0154620467FF620AE21E65AF83B
:1036D000202032B18500002451194A684C60002A2C
:1036E000FAD199F800200021013A89F800204AF81F
:1036F000201043F8201053E7BEF1000F5BD016A84E
:1037000008444AF82E20002240F84C2C474C98F8E8
:1037100000008DF855208DF8562002AA44F82E207E
:1037200006284FF0FF020C978DF82CC08DF854201E
:1037300094D996E75AF82B204FEA8B0422B111193D
:103740004A684860002AFAD199F800200021013A1D
:1037500089F800204AF82B1043F82B10A7E63448CC
:10376000344D016841F080618DE80C0001602868EB
:10377000314920F080402860152003F001FC2F49DA
:103780004FF40010086099F800E09DE80C007DE718
:10379000CDF830B08DF854408DF855108DF8561096
:1037A00052E7BEF1000F26D0204A4AF82E300CAB6B
:1037B00042F82E30E9E5DFF878E01E4CDEF8000034
:1037C0001D4940F080608DE80C00CEF800002068B4
:1037D00020F080402060152003F0D2FB17494FF401
:1037E0000010086099F800E09DE80C004FFA8EFC8C
:1037F0004FEA8E0183E70E4C0E482268009342F098
:103800008062226002680C4922F08042026015202A
:1038100003F0B6FB094A009B4FF40011116099F8C0
:1038200000E04FFA8EFC4FEA8E01BDE7FC49002014
:1038300004700440007004406D04000000E100E0EA
:103840002DE9F04FDFF8B092DFF8B0828D4D8E4F4A
:10385000DFF8ACB28D4E83B0002403F03FFA4FF096
:10386000FF0A8B4BC9F8003089F824A089F825405D
:103870004FF00103874A884989F82630484608F006
:10388000CDFB4FF0010088F82540844B88F824A038
:1038900088F8260088F825007E4A8149C8F800305B
:1038A000404608F0BBFB4FF0010E7E4B85F824A08C
:1038B00085F82540774A7C4985F826E0284685F832
:1038C000274085F828402B6008F0A8FB2B4642468D
:1038D00049467648764DDFF82CA2FFF7C7FC6D4AC3
:1038E0007449724808F09AFB7348FDF75DF9734B11
:1038F000012103F11C021846FDF72EF96F4B07F169
:103900003402022138461D60FDF726F96C4BBB617D
:10391000A3F57C53183B4FF48058FB61694BC7F803
:1039200020807B626848BC62FC623C63C7F800B0E0
:10393000FDF73AF9654B012103F11C021846FDF72A
:103940000BF9624B06F13402022130461D60FDF78F
:1039500003F95B4BB361A3F57C53183B2246214628
:10396000F3615B48574BC6F800B0C6F8208073621D
:10397000B462F4623463FDF7EFF8564BDFF888B1B8
:10398000554D03F11C021846514B4FF07C584FF037
:103990007E59012183F8304083F83840C3F800B0E5
:1039A000C3F82480C3F850901D64FDF7D5F8494B47
:1039B0003F4D1D60224621465046FDF7CDF8474B4E
:1039C000474D8AF83040012103F11C021846424B52
:1039D000CAF800B0CAF824808AF83840CAF8509073
:1039E000CAF84030FDF7B8F83C4BDFF82091304A78
:1039F0003C481A60FDF7D8F805F128020421284652
:103A0000FDF7AAF84FF4803BDFF8E480364B2B60DB
:103A100009F1280204214846C5F818B0C5F81CB0C1
:103A2000C5F820B0C5F824B0FDF796F82E4A2F4906
:103A3000C9F800204FF0010008F11802234688F869
:103A40000840C8F80C40C8F80010C9F818B0214662
:103A5000C9F81CB0C9F820B0C9F824B088F809002A
:103A6000C8F81020444600E0226942F8231098F874
:103A700009201F4801339A42F6DC1E4B1A68002ABF
:103A800047D165E16C4500200C470020483B0020F1
:103A900038590100102A0020950600004C590100F9
:103AA000ED0600002459010045070000CC45002028
:103AB000645D0100E9050000883C00202C490020DD
:103AC00000B28E0480F9855AC03C002018460020C0
:103AD000C83B002050490020497C0100704900206B
:103AE00028480020E83E00207C5D0100B857010016
:103AF000A04500201C4E0020D83D0020104500208D
:103B0000705D0100203C0020305E01006048002014
:103B10001A465369002BFBD1C2F8148000248D4B48
:103B20008D48C8F81440A8F80440A8F80640C8F822
:103B3000003001F0ABFA894B89498A4A596018462E
:103B40001C725C72DC601A6004F052FD864B844A81
:103B50001C72184683E884005C72DC6004F048FD47
:103B6000824B18461C721F605D605C72DC6004F062
:103B70003FFD7F4B7F49804A596018461C725C723A
:103B8000DC601A6004F034FD7C4B7A4A1C721846E3
:103B900083E844005C72DC6004F02AFD784B012766
:103BA0001846DC601E605D601F725F7204F020FDCD
:103BB000744B754A1A601846744A1C725A605C72DB
:103BC000DC6004F015FD724B70491C72022218462D
:103BD00083E82200DC605A7204F00AFD6D4B6E4AE5
:103BE0001C721846C3F800A05A605C72DC6004F0D6
:103BF000FFFC6A4B68491C720322184683E82200C6
:103C00005A72DC6004F0F4FC654B184683E820022D
:103C10001C725C72DC6004F0EBFC624B624A1A605E
:103C200018461C72C3F804905F72DC6004F0E0FC7C
:103C30005E4B18461C72C3F80090C3F804805C7297
:103C4000DC6004F0D5FC5A4B5A4A5B491C601846AC
:103C500080251D7108F0E2F90A221221574800F070
:103C6000BBFE0A220B21564800F0B6FE0A221321A1
:103C7000544800F0B1FE0A221146534800F0ACFE51
:103C800005220621514800F0A7FE052207215048D1
:103C900000F0A2FE052208214E4800F09DFE0522FC
:103CA00009214D4800F098FE1923224601970097FC
:103CB00011214A4802F0B8FB3E4A4949474808F0FA
:103CC000ADF9484802F09CFB474802F099FB474891
:103CD00002F096FB464802F093FB364A45492046DF
:103CE00008F09CF9444802F08BFB444802F088FB42
:103CF000434802F085FB434802F082FB2D4A4249CB
:103D0000204608F08BF9414802F07AFB404802F067
:103D100077FB404802F074FB3F4802F071FB254AF4
:103D20003E49204608F07AF93D4802F069FB3D48DB
:103D300002F066FB3C4802F063FB3C4802F060FB8B
:103D40001C4A3B49204603B0BDE8F04F08F066B975
:103D50001860E3E6885D0100A0450020843B002058
:103D60002C490020883C00204C4500205C45002068
:103D7000D848002018460020C03C0020943B00207A
:103D8000F8480020E8480020C83B002050490020A7
:103D9000783C0020FC47002070490020B03B002008
:103DA000343F002018490020E83E00204C4300200A
:103DB00044430020102A00209D070000383B0020CB
:103DC00008490020C84900203846002094490020B6
:103DD000A4490020B44900209C480020AC480020A1
:103DE000516400005C46002088460020B446002054
:103DF000E04600202D0800005C430020884300209E
:103E0000B4430020E043002001080000F83C0020FB
:103E1000243D0020503D00207C3D0020D5070000BF
:103E20004847002074470020A0470020CC470020CE
:103E3000A907000038B50368A24C1B680322227052
:103E400005469847A04B9A7912F00C0F03D19A7946
:103E5000D20600F1B4809C4A9379C3F38103032B0B
:103E600000F0B880984A9379C3F38103022B00F0E5
:103E7000EC80954A9379C3F38103022B00F0F28022
:103E8000914A9379C3F38103022B00F005818E4A96
:103E90009379C3F38103012B00F0F1808A4A93796F
:103EA000C3F38103012B00F00081874B9A7912F054
:103EB0000C0F03D19A79D20600D49B79834A1378E8
:103EC00003F0040303F0FF018BB9814B19701B78D9
:103ED0001378DB07FCD57E4B7E4A402119701B7896
:103EE00013785807FCD4794A13785907FCD57A4BD4
:103EF0001A6822F002021A60EFF3108272B6BFF362
:103F00005F8FBFF34F8FBFF36F8F30BF82F3108887
:103F1000BFF35F8FBFF34F8FBFF36F8FBFF35F8F21
:103F2000BFF34F8FBFF36F8F1A68684942F00202E8
:103F30001A600B785A070BD5654B664A0021197039
:103F40001B7813785B07FCD5604A1378D807FCD53B
:103F50005D4B5A78A02102F0FD025A701A46197082
:103F600093799907FCD5584A9379DB06FCD45649D6
:103F70008B79554A03F00C03082BF9D10321402318
:103F80001171114653718B799806FCD54E498A7987
:103F90004D4B5206FBD5514A5149116020221A70EF
:103FA0001A46937903F00C030C2BFAD12B682846A0
:103FB0005B6898474B4A00231068237038BD9B7993
:103FC0009B067FF57BAF404A9379C3F38103032BB4
:103FD0007FF448AF937903F0100303F0FF01002B47
:103FE0007FF440AF937998067FF53CAFA023117220
:103FF000114613708B79344A03F00C03082BF9D166
:10400000537903F0BF03537193792F499B06FBD477
:104010004B78652043F001034B700A460870937992
:10402000D806FCD5284A9379D907FCD526498B793F
:10403000254A03F00C03042BF9D1537827492A4869
:1040400043F002035370086038E79379D9063FF5CF
:1040500010AF93799B067FF50CAF537898077FF5E7
:104060002DAF06E79379D9063FF50AAF93799B0602
:104070003FF506AF537898077FF520AF00E79379B7
:10408000D8067FF50BAF937999063FF507AF5378C4
:104090009A073FF513AF01E79379D9063FF5F7AEDD
:1040A00053789B073FF50AAFF1E69379DB067FF57E
:1040B000FCAE937998063FF5F8AE537899077FF5F3
:1040C000FDAEF2E6040400200040064003E0074095
:1040D00001E0074002D0074010E000E044800440C7
:1040E00000000301000400200000131190F82730A5
:1040F00013B990F8283013B1014B00221A607047B1
:104100000060034090F8273013B990F828302BB1A5
:10411000034B044A48F6A37119601A60704700BF48
:1041200000600340A28F010010B4042914D8DFE816
:1041300001F01B1E150318004FF4102472B60D4B2E
:1041400003EBC0004268136823F4702343F08071CE
:1041500021431360116062B610BC70474FF42024F5
:10416000ECE74FF43024E9E74FF40024E6E74FF49E
:104170004024E3E7D45E01002DE9F84FDFF828A3DF
:104180009AF80030012B48D00546BC4A806AE96A9B
:10419000032B82E8030042D0052B40D0804689469D
:1041A000DFF808B32AE0B9FA89F4C4F13F04222CFD
:1041B00033D82B190BEBC40293F83010526804F17A
:1041C000200305EB8303106858600B1100F0B980E1
:1041D000022B00F0FC80032B00F00F810123A4F1DF
:1041E0002001C4F1200203FA01F723FA02F2174377
:1041F00003FA04F628EA060829EA07094046494670
:1042000007F0E6FE48B1B9F1000FCCD1B8FA88F456
:104210002034C4F13F04222CCBD9BDE8F88F984953
:10422000984A0868984B00F40000A866086800F0F7
:104230008070E866086800F000702867086800F081
:1042400080606867096801F00061A9674FF4000C9D
:104250004FF0807E4FF000614FF000744FF08060AF
:10426000C2F800C0C2F800E0146010601160C3F82A
:1042700000C0C3F800E01C601860196002F002FE84
:10428000DFF82CE2814C9EF8002085F87C20A0F11C
:104290001103EE2B227885F87D2098BFA0F1100342
:1042A0007B487C49027885F87E2091F800C07A4AE4
:1042B00085F87FC092F800C085F880C094BFDBB25B
:1042C00080238EF80030237003700B70137072B669
:1042D000724B7349D3F89C216A65D3F8A021AA6573
:1042E000D3F8A421EA65D3F8A8212A66D3F8AC3123
:1042F0006B66572002F044FE6949582002F040FEE8
:104300006749592002F03CFE65495A2002F038FE08
:1043100063495B2002F034FE62B6594B4FF4000E45
:104320004FF080744FF000704FF080614FF00062EA
:10433000D5E90A89C3F800E01C60186019601A60AA
:104340002EE75BF8340080F880324FF48070106004
:104350009AF80020032A31D0052A2FD0032B4AD007
:10436000022B14BF03220222022C3ED0042CE3B203
:1043700055D0062B59D0072B5ED0092B63D00A2BC2
:104380006FD00B2B73D00D2B00F09480102B61D0CD
:10439000152B00F09D80162B00F0A1801A2B00F049
:1043A000A5801E2B00F08D80212B7FF417AF3D4B95
:1043B0001B7843EA82123B4B1A700FE7222CE0B2C3
:1043C0003FF40CAF01F00F01FFF7AEFE06E75BF81C
:1043D00034004FF0000E80F880E24FF480701060DF
:1043E000106840F003001060B2E72E4BDB781A43F0
:1043F0002C4BDA70F2E60122B6E75BF834004FF09E
:10440000000E80F880E24FF480701060106840F079
:1044100002001060106820F00100106098E7214B46
:104420005B781A431F4B5A70D8E61E4BDB7843EA81
:1044300002121C4BDA70D1E61A4BDB7843EA820297
:10444000184BDA70CAE6174B5B7843EA8212154BB9
:104450005A70C3E6134B5B7843EA8202114B5A70E1
:10446000BCE6104B9B781A430E4B9A70B6E60D4B88
:104470009B7843EA02120B4B9A70AFE6204A002069
:1044800008E100E088E100E088E200E058E400E0B4
:1044900059E400E05AE400E05BE400E0000800209A
:1044A0006D0400001050002004040020D45E0100C0
:1044B00057E400E0104B9B7843EA82020E4B9A705F
:1044C0008CE60D4B9B7843EA82120B4B9A7085E683
:1044D000094BDB7843EA8212074BDA707EE6064B23
:1044E0005B7843EA0212044B5A7077E6024B1B7862
:1044F0001A43014B1A7071E6105000202DE9F04F5D
:104500004A4B1B7883B0012B019300F08C808146CD
:10451000D0E90A67DFF820814FF0000A4FF0010B65
:1045200023E0B7FA87F3C3F13F03A3F1200EC3F1F1
:10453000200103F120000BFA0EF52BFA01F1212BDB
:1045400008EBC30C09EB800045EA01050BFA03F404
:1045500016D858F8333083F880A2DCF8043041686C
:10456000196026EA040627EA05073046394607F0AF
:104570002FFD28B1002FD4D1B6FA86F32033D2E72D
:10458000019B032B01D0052B4DD1294B99F87C20A1
:104590001A7099F87D205A7099F87E209A7099F8CF
:1045A0007F20DA7099F880201A7172B65720D9F8F6
:1045B000541002F0E5FCD9F85810582002F0E0FC45
:1045C000D9F85C10592002F0DBFCD9F860105A20B1
:1045D00002F0D6FCD9F864105B2002F0D1FC62B680
:1045E000D9F868301BB9134B4FF400021A60D9F8A0
:1045F0006C301BB90F4B4FF080721A60D9F87030D5
:104600001BB90C4B4FF000721A60D9F874301BB90B
:10461000084B4FF080621A60D9F878301BB9054B0F
:104620004FF000621A6003B0BDE8F08F0404002070
:1046300057E400E088E100E0D45E010021291CDCA1
:10464000F0B54FF0010EA1F120060EFA06F5C1F10A
:1046500020062EFA06F63543D0E90A6743EA02132C
:104660000EFA01F4421834433D4380F825E0C0E9D6
:104670000A4582F830300846F0BD4FF0FF307047F1
:104680009D4B9E489E499F4A2DE9F04FD3F80090DC
:10469000C3F80090D0F800A00E68C0F800A00E602B
:1046A000116883B003F540530091084696491E688F
:1046B000019610601E600B78063B032B37D9934B95
:1046C000DFF85082D3E900674FF0010B21E0B7FA21
:1046D00087F2C2F13F02212A29D872B608EBC20143
:1046E0004868016821F0877121F4803141F08071C0
:1046F000016062B6A2F12000C2F120010BFA00F5C0
:104700002BFA01F10D430BFA02F426EA040627EA1C
:1047100005073046394607F05BFC58B1002FD6D16B
:10472000B6FA86F22032C2F13F02212AD5D903B06F
:10473000BDE8F08F19F4805F68D119F4005F6BD188
:1047400019F0200F70D119F0100369D11AF4803FCD
:104750006ED11AF4003F6ED11AF0010F6FD11AF02A
:10476000020F70D11AF0080F71D11AF0040F72D134
:104770001AF4002F77D11AF4802F70D1009B1807FC
:1047800000F1CE80009BD90600F1C680009B5A063E
:1047900000F1AD80009B1B0600F1A580009B9F06E9
:1047A00000F19D80009BDE0700F19580009B9D0736
:1047B00000F18D80009B5C0700F18580009B9805CF
:1047C0007DD4009BD90576D4009B5A056FD4009BFD
:1047D0001B0568D4019BDF0761D4019B1E065AD4D8
:1047E000019BDD0653D4019B5C074CD4019B180749
:1047F00045D4019B99073ED4019B9A0637D4019B6F
:104800005B0694D5424B15221A6090E7404B032279
:104810001A6003B0BDE8F08F3D4B04221A6086E7B2
:104820003B4B21221A6082E7394B18221A607EE73F
:10483000374A13607BE7364B01221A6077E7344B27
:1048400010221A6073E7324B11221A606FE7304B67
:1048500012221A606BE72E4B13221A6067E72C4B6B
:1048600020221A6063E72A4B19221A605FE7284B5F
:1048700014221A605BE7264B0E221A6057E7244B7E
:1048800008221A6053E7224B07221A604FE7204B99
:1048900006221A604BE71E4B05221A6047E71C4BA5
:1048A00002221A6043E71A4B1E221A603FE7184B98
:1048B0001D221A603BE7164B1C221A6037E7144B87
:1048C0001B221A6033E7124B17221A602FE7104B96
:1048D00016221A602BE70E4B0F221A6027E70C4BAB
:1048E0000D221A6023E70A4B0C221A601FE7084BBF
:1048F0000B221A601BE700BFA0900440A0A0044058
:10490000A0D00440A0B0044004040020204A0020AD
:1049100000040020D45E0100034B0A221A6006E75F
:10492000014B09221A6002E700040020FFF7A8BE2D
:10493000704700BF114B1B78012B0AD0104811495A
:10494000114A10B40024047009681160032B01D0CF
:1049500010BC70470D480E4903680E4A43F480238B
:1049600003600B7803F07F030B70137843F00103AF
:1049700013701378DB07FCD5EAE700BF04040020BE
:10498000184E00201C4D0020305000203480044080
:1049900000210740942007400B4B1B78032B00D0CD
:1049A00070470A490A4A0B7843F080030B7013786A
:1049B00003F0FE0313701378DB07FCD4054A136879
:1049C00023F4802313607047040400200021074073
:1049D000942007403480044030B5094B426083B0D6
:1049E0001B6801930D46019B036000210446816012
:1049F000284602F035FD20732046657303B030BDB4
:104A00001C4D0020007B704730B5044683B0407BCE
:104A100002F026FD237B834210D00A4A25681368E2
:104A20000093009B61685B1B8B4207D31368019363
:104A3000019B20730120236003B030BD002003B030
:104A400030BD00BF1C4D002030B583B00446FFF7D9
:104A5000DBFFB0B9A3681BB90023A37303B030BD5B
:104A60000B4925680A680092009A521B9342F3D8BA
:104A70000B680193019BA06001202360A07303B029
:104A800030BD01200023A360A07303B030BD00BF80
:104A90001C4D0020F8B5037E102B04464FF000019A
:104AA0004FD0204603F082FD0546002868D0637E83
:104AB000012B57D9227E102A4FF000062AD005EB91
:104AC0004602B2F90470FBB1802E41D005EB4600DE
:104AD0000230324601E0802A3AD0237EC3F110032F
:104AE00027FA03F101FA03F320F8023F0132637E53
:104AF000911B9942EFDB802A2AD0164605EB46022D
:104B0000B2F90470002BDFD13246F4E73246802A36
:104B10001ED0164605EB4602B2F90470002BF5D004
:104B2000802E15D005EB46010231324601E0802A85
:104B30000ED021F8027F0132637E901B9842F6DB93
:104B4000E5E7437E012BACD803F024FD0546B8B160
:104B500020462946002203F003FD2846BDE8F84020
:104B600003F0DABC811C00F58170227E31F9023F2E
:104B7000C2F110021341934088420B80F5D1E7E760
:104B8000F8BD00BF2DE9F04F83B08846846A0190DC
:104B9000D0F81CC0D0F824A0C16A076BDDF83090B3
:104BA00008F580702646834638F902EB4FEA0E3E40
:104BB0005CFB17F401EB84045AFB17F57644C4EB55
:104BC0006606A6EB85065CFB16F007EB80005CFB37
:104BD00010F104EB81015AFB10F5C1EB0E07A7EBB6
:104BE00085055CFB15F700EB87070C4424F34F3475
:104BF000384420F34F30354425F34F35C34522F870
:104C0000024B764623F8020B29F8025BCCD1019ABD
:104C10001346C3F828E0D162176303B0BDE8F08FF4
:104C20002DE9F04F85B088468169019101460C4617
:104C30000390006A0290D1F824B08F6A206BC96A91
:104C4000DDF838A0DDF83C9008F58074009432F966
:104C5000026B029C06FB04F626F0784505F1006520
:104C6000ED0055FB15F5284C55FB14F5ED00013C06
:104C7000F616C6F106062C443441019D55FB14F48A
:104C8000224D38F902CBAC42A8BF2C4624024FEA91
:104C90000C3C54FB10F601EB86065BFB10F107EBB6
:104CA0000C0EC6EB6E0EAEEB810E54FB1EF500EB48
:104CB000850554FB15F106EB81015BFB15F0C1EB9B
:104CC0000C07A7EB800754FB17F405EB84000E4498
:104CD00026F34F36054425F34F35BE442EF34F3EA1
:104CE000009C23F8026B44452AF8025B674629F8CA
:104CF00002EBACD1039A1346C3F828C0D16210630B
:104D000005B0BDE8F08F00BFABAAAA2AE710520099
:104D10002DE9F043002183B0044603F03BFC012160
:104D20000546204603F036FC0646002D3CD003F035
:104D3000A7FB074600283CD003F0A2FB80460028D2
:104D400042D003F09DFB8146002851D0002E45D073
:104D5000021D08F104030192009320463B1D321D01
:104D6000291DFFF75DFF304603F0D6FB284603F010
:104D7000D3FB00223946204603F0F2FB384603F00D
:104D8000CBFB01224146204603F0EAFB404603F0FC
:104D9000C3FB20460222494603F0E2FB484603B02B
:104DA000BDE8F04303F0B8BB0028F8D103B0BDE87C
:104DB000F083284603F0B0FB002EF7D0304603B056
:104DC000BDE8F04303F0A8BB284603F0A5FB384636
:104DD00003F0A2FB002EE9D03046F0E7031D00935C
:104DE0003A1D08F10403291D2046FFF7CBFEBDE75D
:104DF000284603F091FB384603F08EFB404603F053
:104E00008BFB002ED2D03046D9E700BF10B5044648
:104E100003F0C4FC204610BD024A0349034807F0D2
:104E2000FDB800BF102A00200D4E0000284A0020C7
:104E300038B5074D074C08482A46214607F0EEF8DA
:104E40002A4621460548BDE8384007F0E7B800BFCC
:104E5000102A00200D4E0000304A0020384A002061
:104E6000024A0349034807F0D9B800BF102A0020BE
:104E70000D4E0000404A0020024A0349034807F053
:104E8000CDB800BF102A00200D4E0000484A002077
:104E9000024A0349034807F0C1B800BF102A0020A6
:104EA0000D4E0000504A0020024A0349034807F013
:104EB000B5B800BF102A00200D4E0000584A00204F
:104EC0002DE9F8434FF00008064600F11805474663
:104ED00041463046002F4FD003F05CFBF0B12C6808
:104EE000B4F5803F07F1040100F1040E07F5827C60
:104EF00027D05EF8042B34FB02F334FB12F903F3E2
:104F00000F0209F30F03C2EA03430A6893FA12F38C
:104F100041F8043B8C45ECD803F0FEFA08F1010897
:104F2000B8F1040F05F10405D2D1002F40D030466E
:104F30003946002203F014FB3846BDE8F84303F07D
:104F4000EBBA07F10C0100F10C0451F8083C54F8DD
:104F5000082C93FA12F341F8083C54F8042C51F849
:104F6000043C93FA12F38C4541F8043C04F1080424
:104F700001F10801E9D8CFE703F018FB0746002844
:104F8000CCD02868B0F5803FC8D0391D07F58274B1
:104F90000B6830FB03F230FB13F302F30F0203F351
:104FA0000F03C2EA034341F8043B8C42F0D8B5E753
:104FB000BDE8F883024A0349034807F02FB800BF51
:104FC000102A00200D4E0000604A002010B500217C
:104FD00003F0E0FA70B172B60A4B1A6872B10A496E
:104FE0000C6844B11C60086062B61046BDE8104011
:104FF00003F092BA10BD086062B610BD186062B6C8
:1050000010BD00BF784A0020684A002038B5184B10
:1050100018491A68184C12681B79184D0B70A24277
:10502000286836BF2246A4F5807202F58074C0B1AC
:10503000011D31F9023B03F500431B1122F8023B2D
:105040009442F6D803F068FA0D4B002219682960E3
:105050001A600C4B1B781BB10B4B4FF080421A604F
:1050600038BD4FF4006322F8023B9442FBD8F0E7CE
:105070006C4A00201F80004008050020784A00206C
:10508000684A0020744A002008E200E0F8B50121D7
:105090004248434E03F01EFB424A434913688020B6
:1050A00043F4805313600024087040F608053480F0
:1050B0000120083402F00AFAA3B2AB421CB2F6D1C6
:1050C0003A4B1B685B0208D5394B1A6848F6A27345
:1050D000134048F6A27293424FD03449344A0B68C9
:1050E000344F354D3548364C43F480030B604FF058
:1050F000010E40F23F4648F6A37140F20113C7F893
:1051000000E02E60116014600360244C2D4A236877
:1051100023491A6002259D802279196102F180429B
:1051200002F50432284EDE6040F20111D9804FF4BE
:10513000807000210627B026D8829D60D88399828E
:105140009F8399611170167003F06AFA22791F4BE0
:105150001F4E187053119B0003F160431D4C3270B9
:1051600003F5614302F1100002F01F0701211A4DFF
:1051700044F82050B9401960F8BD0F4B1A6840F24E
:105180003F439A42A9D10B4B1B68012BA5D10B4B76
:105190001A6840F201139A429FD1B6E76C4A002088
:1051A00000C00C402C80044021C00C403C800440D6
:1051B000006003400C600340046003401060034043
:1051C000A28F01000804002000FEFFFF744A0020A7
:1051D0001B800040000800200D500000024A0349D7
:1051E000034806F01BBF00BF102A00200D4E000030
:1051F0006C4A0020024A0349034806F00FBF00BF73
:10520000102A00200D4E00007C4A0020024A03496B
:10521000034806F003BF00BF102A00200D4E000017
:10522000844A0020024A0349034806F0F7BE00BF43
:10523000102A00200D4E00008C4A0020024A03492B
:10524000034806F0EBBE00BF102A00200D4E000000
:10525000944A0020024A0349034806F0DFBE00BF1B
:10526000102A00200D4E00009C4A0020024A0349EB
:10527000034806F0D3BE00BF102A00200D4E0000E8
:10528000A44A00202DE9F04F83B0064603F0F8F859
:105290000190002800F0848000F58279031DB6F9A2
:1052A0002E100091994565D9871DDFF8FCE008E0D4
:1052B0004FF0000327F8023C3B46994507F10207EF
:1052C00058D9F3694FF6FE729342F1DD326A9B1AA8
:1052D000F36113FB33F3716B306B491033FB01F156
:1052E0008913C20032FB01F1726A02440A4422F0BF
:1052F00000424FEAD25CC2F3CF147262009A322AA3
:105300000CF1010A42DDB26A3EF91C503EF91AC0A6
:10531000024402EB5000084400EB610121F000411F
:10532000CA0D02F101083EF912003EF91820B162DF
:10533000121AC1F3CF1101FB02F2C5EB0C0CB6F946
:105340002E10B6F92C8004FB0CFC00EB224205EB7E
:105350002C4C01FB02F208FB0CFCD21302EBEC38E4
:1053600033FB08F3DB1327F8023C3B46994507F172
:105370000207A6D8019C30460022214603F0F0F82F
:10538000204603B0BDE8F04F03F0C6B83EF91C203C
:105390003EF91A10891A04FB01F802EB2848DFE7EE
:1053A00003B0BDE8F08F00BF585B010072B6034B3D
:1053B000C36100234362836262B670470000FF7FCF
:1053C00038B50D4604460021284606F093FD70B915
:1053D0004FF07E51284606F0ABFD60B14FF480439C
:1053E00043F6FF7072B6E085A38562B638BD47F616
:1053F000FF730020F6E70649284606F0DDFB06F0BD
:10540000A1FD00B2C0F5FF437F331BB2EAE700BF46
:1054100000FC7F4638B50D4604460021284606F0BC
:1054200069FD48B94FF07E51284606F081FD30B144
:105430004BF6FD73636338BD0D4B636338BD0D4997
:10544000284606F0B9FB06F07DFDB0F5804F08DA7E
:10545000C0F5804000EB400040F391035B42636382
:1054600038BDA0F5804000EB400040F31103E1E7B8
:1054700000D0FFFF00FEFF46704700BF00207047CE
:10548000704700BF064B074ADA62022100225960CA
:105490009A7083F8242083F8302083F832207047F4
:1054A000AC4A0020185E010010B50121007801F01F
:1054B000D1FF0E4A137893B10D49CB7A00241846D8
:1054C000147063B1DC0703D50A4A88691060184676
:1054D0009A0705D4430702D5074B0A6A1A6010BD24
:1054E000064BCA69C87A1A60F4E700BF044B002073
:1054F000202A002000E100E008E100E004E100E0F3
:105500001E4B1A781AB10078002101F0A3BF70B4C5
:105510001B4A1C49D47A096801251D70ECB172B68A
:10552000D37ADE071C4606D5174DD4682E68344062
:1055300094612C601C469D0706D5144D13692E6896
:10554000D47A3340D3612B60630705D5104C53697F
:1055500025682B401362236062B61368DA688A42BA
:1055600007D00C4C1C600C4AD96041F080441C618F
:105570001A600078002170BC01F06CBF044B002061
:10558000202A0020004B002080E100E084E100E0C0
:1055900088E100E001401F0000001F80F0B4134CC0
:1055A000134A236882B01746009300984FF00046D4
:1055B00080B2FF25136843F480631360D66255639D
:1055C000D36A002BFCDABB6BDBB2FF2B0AD023685B
:1055D0000193019B9BB21B1A8B42EBDB002002B0B4
:1055E000F0BC7047012002B0F0BC70471C4D002099
:1055F00000C00240F8B50D464FF4967116460446B9
:10560000FFF7CCFF284B1A684FF0004042F480624D
:1056100045F040011A60D8621A465963D36A002BDC
:10562000FCDA214918204FF000470A6826FA00F3F7
:1056300042F48062DBB20A60CF624B63CB6A002B1C
:10564000FCDA083810F1080FEFD155B3082D0CBF64
:105650008721FF21144B1A684FF0004042F480620A
:105660001A60D8621A465963D36A002BFCDA0E4AD4
:10567000002716464FF00045FF21136843F480636E
:105680001360D5625163D36A002BFCDAB36BD8B2D6
:105690001B06607000D4F8BD0137B7F5807FECD1F0
:1056A000F8BD9521D6E700BF00C00240F0B4164C0B
:1056B000164A236882B01746009300994FF00046BF
:1056C00089B2FF25136843F480631360D662556383
:1056D000D36A002BFCDABB6BDBB2FF2B43700BD120
:1056E00023680193019B9BB25B1AB3F5967FE9DDBA
:1056F000002002B0F0BC7047A3F1FE00B0FA80F0C9
:10570000400902B0F0BC70471C4D002000C00240B0
:10571000F8B58378032B0E46044618BF4E02154693
:10572000FFF7EEFE324611212046FFF763FF18B95E
:105730002046FFF7BBFF20B92046FFF7B5FE00204B
:10574000F8BD204B2049214A1A608E4659631A46FB
:1057500059631E46596305F5FD70A91C05F5FE77D2
:10576000D36A13F0F00FFBD0C6F834E0B36B01F846
:10577000013C1B1201F8023C02318F42F0D105F5C9
:105780000075A8420DD20F4A1646D36A13F0F00FE7
:10579000FBD0B36B191200F8021BA84200F8013CC1
:1057A000F3D3084B0949084A196019465A63CB6A72
:1057B000044A13F0F00FFAD02046936BFFF774FE03
:1057C0000120F8BD00C00240FFFF009000041F80D0
:1057D000F0B4314E33684FF0004743F480633360D8
:1057E0003D46F762344671633346511C02F201278D
:1057F000E26A002AFCDA1A6811F8016C42F480624D
:105800001A60DD625E63E26A002AFCDA1A6811F847
:10581000026B42F480628F421A60DD625E63E7D100
:105820001D49CA6A1C4B002AFBDA1A684FF0004572
:1058300042F48062FF241A601946DD625C63CB6A21
:10584000154A002BFBDA13684FF0004543F48063E0
:10585000FF2413601146D5625463CB6A0E4A002BB5
:10586000FBDA13684FF0004543F48063FF241360B4
:105870001146D5625463CB6A074A002BFBDA936B5F
:10588000DBB203F01F024370A2F10500B0FA80F012
:105890004009F0BC704700BF00C0024070B504462C
:1058A00071B18378032B0D4618BF4D021646FFF7E2
:1058B00027FE2A4618212046FFF79CFE054620B108
:1058C0002046FFF7F1FD002070BD3246FE21204644
:1058D000FFF77EFF0028F3D04FF416712046FFF744
:1058E0005DFE0028ECD02A460D212046FFF782FEFF
:1058F0000028E5D10B4B1A684FF0004542F4806256
:10590000FF201A601946DD625863CB6A054A002BF6
:10591000FBDA936B13F0FF0FD2D12046FFF7C4FDE3
:10592000012070BD00C00240014B024A1A6070475E
:10593000004B00200110013838B590F90530002BDC
:1059400003DBBDE8384000F06DB904460121006971
:1059500000F092F9F8B1257D104B13EB45151AD0E4
:10596000A3790F4A012B9CBFA369EB61E36912681D
:105970006B831B0CAB8232B105F1160105F11800E7
:1059800090472B8B6B82637903F07F036371BDE8D3
:10599000384000F047B9002038BD00BF144B00204C
:1059A000084B002010B500F1080204460121006AEE
:1059B00000F000FA50B1E3693BB96379A268E26193
:1059C00063F07F036371012010BD012010BD00BF93
:1059D000F8B5837913B182698A4201D20020F8BDFB
:1059E000022B0F4605461AD007B32B6AE9681C7CC8
:1059F0004A1E04F109037C1EDA40DC40A24211D9A0
:105A0000EB69AB6005F1080606E0A968286A00F0BA
:105A100099F9013C0028E1D03246002CF5D1EF6025
:105A20000120F8BD0029EBD0A41AEBE7AF60EF60CE
:105A30000120F8BD2DE9F04F8B46817985B0012911
:105A40000746019205D001233B71002005B0BDE857
:105A5000F08F42799107F6D5530708D5FC68B969EC
:105A60008C4200F0A880FFF7B3FF0028EBD0019B29
:105A7000FC68002B49D0DFF88C91DFF88CA1DDF8B1
:105A80000480386A0679013E06EA542616F0FF06BD
:105A9000C4F3080442D1002C40D1B96800296FD169
:105AA000FA69002A7ED0BA60C4F50075ADB24545EA
:105AB0003AD9057C4169023AAA400E4416441FFABD
:105AC00088F51CB9F868BA6990424CD23046012179
:105AD00000F0D2F80028B6D04C4404EB050E744513
